:1000000009C00EC00DC00CC00BC00AC009C008C09A
:1000100007C006C011241FBECFE9CDBF02D02EC03D
:10002000EFCF17BA87B3886187BB18BA2FE73FE4D1
:1000300042E1215030404040E1F700C0000083E041
:1000400090E198BB5FEF2CEB31E045E05150204050
:1000500030404040D9F700C0000018BA5FEF2BE1F4
:100060003EE44EE05150204030404040D9F700C0BF
:100070000000815031F788E088BBFFCFF894FFCFB4
:00000001FF
